{
  "contractName": "tracking",
  "abi": [
    {
      "constant": true,
      "inputs": [],
      "name": "dtime",
      "outputs": [
        {
          "internalType": "uint256",
          "name": "",
          "type": "uint256"
        }
      ],
      "payable": false,
      "stateMutability": "view",
      "type": "function"
    },
    {
      "constant": true,
      "inputs": [],
      "name": "mtime",
      "outputs": [
        {
          "internalType": "uint256",
          "name": "",
          "type": "uint256"
        }
      ],
      "payable": false,
      "stateMutability": "view",
      "type": "function"
    },
    {
      "constant": true,
      "inputs": [],
      "name": "rtime",
      "outputs": [
        {
          "internalType": "uint256",
          "name": "",
          "type": "uint256"
        }
      ],
      "payable": false,
      "stateMutability": "view",
      "type": "function"
    },
    {
      "constant": true,
      "inputs": [],
      "name": "ttime",
      "outputs": [
        {
          "internalType": "uint256",
          "name": "",
          "type": "uint256"
        }
      ],
      "payable": false,
      "stateMutability": "view",
      "type": "function"
    },
    {
      "constant": true,
      "inputs": [],
      "name": "getmTime",
      "outputs": [
        {
          "internalType": "uint256",
          "name": "",
          "type": "uint256"
        }
      ],
      "payable": false,
      "stateMutability": "view",
      "type": "function"
    },
    {
      "constant": true,
      "inputs": [],
      "name": "gettTime",
      "outputs": [
        {
          "internalType": "uint256",
          "name": "",
          "type": "uint256"
        }
      ],
      "payable": false,
      "stateMutability": "view",
      "type": "function"
    },
    {
      "constant": true,
      "inputs": [],
      "name": "getdTime",
      "outputs": [
        {
          "internalType": "uint256",
          "name": "",
          "type": "uint256"
        }
      ],
      "payable": false,
      "stateMutability": "view",
      "type": "function"
    },
    {
      "constant": true,
      "inputs": [],
      "name": "getrTime",
      "outputs": [
        {
          "internalType": "uint256",
          "name": "",
          "type": "uint256"
        }
      ],
      "payable": false,
      "stateMutability": "view",
      "type": "function"
    },
    {
      "constant": false,
      "inputs": [],
      "name": "setmColor",
      "outputs": [],
      "payable": false,
      "stateMutability": "nonpayable",
      "type": "function"
    },
    {
      "constant": false,
      "inputs": [],
      "name": "settColor",
      "outputs": [],
      "payable": false,
      "stateMutability": "nonpayable",
      "type": "function"
    },
    {
      "constant": false,
      "inputs": [],
      "name": "setdColor",
      "outputs": [],
      "payable": false,
      "stateMutability": "nonpayable",
      "type": "function"
    },
    {
      "constant": false,
      "inputs": [],
      "name": "setrColor",
      "outputs": [],
      "payable": false,
      "stateMutability": "nonpayable",
      "type": "function"
    },
    {
      "constant": false,
      "inputs": [],
      "name": "reset",
      "outputs": [],
      "payable": false,
      "stateMutability": "nonpayable",
      "type": "function"
    },
    {
      "constant": true,
      "inputs": [],
      "name": "getmColor",
      "outputs": [
        {
          "internalType": "bool",
          "name": "exists",
          "type": "bool"
        }
      ],
      "payable": false,
      "stateMutability": "view",
      "type": "function"
    },
    {
      "constant": true,
      "inputs": [],
      "name": "gettColor",
      "outputs": [
        {
          "internalType": "bool",
          "name": "exists",
          "type": "bool"
        }
      ],
      "payable": false,
      "stateMutability": "view",
      "type": "function"
    },
    {
      "constant": true,
      "inputs": [],
      "name": "getdColor",
      "outputs": [
        {
          "internalType": "bool",
          "name": "exists",
          "type": "bool"
        }
      ],
      "payable": false,
      "stateMutability": "view",
      "type": "function"
    },
    {
      "constant": true,
      "inputs": [],
      "name": "getrColor",
      "outputs": [
        {
          "internalType": "bool",
          "name": "exists",
          "type": "bool"
        }
      ],
      "payable": false,
      "stateMutability": "view",
      "type": "function"
    }
  ],
  "bytecode": "0x608060405260008060006101000a81548160ff02191690831515021790555060008060016101000a81548160ff02191690831515021790555060008060026101000a81548160ff02191690831515021790555060008060036101000a81548160ff02191690831515021790555034801561007857600080fd5b50610508806100886000396000f3fe608060405234801561001057600080fd5b506004361061010b5760003560e01c80634b59d412116100a2578063a439ac9511610071578063a439ac9514610264578063d26e508d1461026e578063d826f88f14610278578063ec6c18be14610282578063ef158ae91461028c5761010b565b80634b59d412146101ec5780634ca77e281461020a57806359be6644146102285780639d5501a9146102465761010b565b80631b17ca8b116100de5780631b17ca8b146101885780631b4561611461019257806325ea60e3146101b0578063476d4346146101ce5761010b565b80630c3631bb14610110578063118cbd021461012e57806312549dc01461014c57806316a9769f1461016a575b600080fd5b6101186102aa565b6040516101259190610479565b60405180910390f35b6101366102c0565b6040516101439190610494565b60405180910390f35b6101546102c6565b6040516101619190610494565b60405180910390f35b6101726102cc565b60405161017f9190610494565b60405180910390f35b6101906102d2565b005b61019a6102f5565b6040516101a79190610494565b60405180910390f35b6101b86102ff565b6040516101c59190610479565b60405180910390f35b6101d6610315565b6040516101e39190610494565b60405180910390f35b6101f461031f565b6040516102019190610479565b60405180910390f35b610212610335565b60405161021f9190610494565b60405180910390f35b61023061033b565b60405161023d9190610479565b60405180910390f35b61024e610351565b60405161025b9190610494565b60405180910390f35b61026c61035b565b005b61027661037f565b005b6102806103a3565b005b61028a61042d565b005b610294610451565b6040516102a19190610494565b60405180910390f35b60008060039054906101000a900460ff16905090565b60045481565b60025481565b60035481565b60016000806101000a81548160ff02191690831515021790555042600181905550565b6000600254905090565b60008060019054906101000a900460ff16905090565b6000600154905090565b60008060009054906101000a900460ff16905090565b60015481565b60008060029054906101000a900460ff16905090565b6000600354905090565b6001600060036101000a81548160ff02191690831515021790555042600481905550565b6001600060026101000a81548160ff02191690831515021790555042600281905550565b60008060006101000a81548160ff02191690831515021790555060008060016101000a81548160ff02191690831515021790555060008060026101000a81548160ff02191690831515021790555060008060036101000a81548160ff0219169083151502179055506000600181905550600060028190555060006003819055506000600481905550565b6001600060016101000a81548160ff02191690831515021790555042600381905550565b6000600454905090565b610464816104af565b82525050565b610473816104bb565b82525050565b600060208201905061048e600083018461045b565b92915050565b60006020820190506104a9600083018461046a565b92915050565b60008115159050919050565b600081905091905056fea365627a7a723158202b9456fcc9ece866b0fac1135ae1c47576df684b8075d12b158625f8ebaf76dc6c6578706572696d656e74616cf564736f6c63430005100040",
  "source": "//SPDX-License-Identifier: MIT\npragma solidity >=0.4.21 <=0.8;\npragma experimental ABIEncoderV2;\n\ncontract tracking{\n    bool mColor=false;\n    bool tColor=false;\n    bool dColor=false;\n    bool rColor=false;\n    uint public mtime;\n    uint public dtime;\n    uint public ttime;\n    uint public rtime;\n  \n  function getmTime() public view returns(uint){\n    return mtime;\n  }        \n    function gettTime() public view returns(uint){\n    return ttime;\n  } \n    function getdTime() public view returns(uint){\n    return dtime;\n  } \n    function getrTime() public view returns(uint){\n    return rtime;\n  }  \n\n    function setmColor() public{\n        mColor=true;\n        mtime = block.timestamp;\n    }\n    function settColor() public{\n        tColor=true;\n        ttime = block.timestamp;\n\n    }\n    function setdColor() public{\n        dColor=true;\n        dtime = block.timestamp;\n\n    }\n    function setrColor() public{\n        rColor=true;\n        rtime = block.timestamp;\n\n    }\n    function reset() public{\n        mColor=false;\n        tColor=false;\n        dColor=false;\n        rColor=false;\n        mtime=0;\n        dtime=0;\n        ttime=0;\n        rtime=0;\n    }\n    function getmColor() public view returns (bool exists){\n        return mColor;\n    }\n    function gettColor() public view returns (bool exists){\n        return tColor;\n    }\n    function getdColor() public view returns (bool exists){\n        return dColor;\n    }\n    function getrColor() public view returns (bool exists){\n        return rColor;\n    }\n}",
  "sourcePath": "D:\\Hamza\\Document\\final year\\Final year project\\contracts\\tracking.sol",
  "compiler": {
    "name": "solc",
    "version": "0.5.16+commit.9c3226ce.Emscripten.clang"
  },
  "schemaVersion": "3.4.11",
  "updatedAt": "2023-02-12T15:24:28.970Z",
  "networkType": "ethereum",
  "devdoc": {
    "methods": {}
  },
  "userdoc": {
    "methods": {}
  }
}