{
  "contractName": "tracking",
  "abi": [
    {
      "constant": false,
      "inputs": [],
      "name": "setmColor",
      "outputs": [],
      "payable": false,
      "stateMutability": "nonpayable",
      "type": "function"
    },
    {
      "constant": false,
      "inputs": [],
      "name": "settColor",
      "outputs": [],
      "payable": false,
      "stateMutability": "nonpayable",
      "type": "function"
    },
    {
      "constant": false,
      "inputs": [],
      "name": "setdColor",
      "outputs": [],
      "payable": false,
      "stateMutability": "nonpayable",
      "type": "function"
    },
    {
      "constant": false,
      "inputs": [],
      "name": "setrColor",
      "outputs": [],
      "payable": false,
      "stateMutability": "nonpayable",
      "type": "function"
    },
    {
      "constant": false,
      "inputs": [],
      "name": "reset",
      "outputs": [],
      "payable": false,
      "stateMutability": "nonpayable",
      "type": "function"
    },
    {
      "constant": true,
      "inputs": [],
      "name": "getmColor",
      "outputs": [
        {
          "internalType": "bool",
          "name": "exists",
          "type": "bool"
        }
      ],
      "payable": false,
      "stateMutability": "view",
      "type": "function"
    },
    {
      "constant": true,
      "inputs": [],
      "name": "gettColor",
      "outputs": [
        {
          "internalType": "bool",
          "name": "exists",
          "type": "bool"
        }
      ],
      "payable": false,
      "stateMutability": "view",
      "type": "function"
    },
    {
      "constant": true,
      "inputs": [],
      "name": "getdColor",
      "outputs": [
        {
          "internalType": "bool",
          "name": "exists",
          "type": "bool"
        }
      ],
      "payable": false,
      "stateMutability": "view",
      "type": "function"
    },
    {
      "constant": true,
      "inputs": [],
      "name": "getrColor",
      "outputs": [
        {
          "internalType": "bool",
          "name": "exists",
          "type": "bool"
        }
      ],
      "payable": false,
      "stateMutability": "view",
      "type": "function"
    }
  ],
  "bytecode": "0x608060405260008060006101000a81548160ff02191690831515021790555060008060016101000a81548160ff02191690831515021790555060008060026101000a81548160ff02191690831515021790555060008060036101000a81548160ff02191690831515021790555034801561007857600080fd5b506102f0806100886000396000f3fe608060405234801561001057600080fd5b50600436106100935760003560e01c806359be66441161006657806359be6644146100fc578063a439ac951461011a578063d26e508d14610124578063d826f88f1461012e578063ec6c18be1461013857610093565b80630c3631bb146100985780631b17ca8b146100b657806325ea60e3146100c05780634b59d412146100de575b600080fd5b6100a0610142565b6040516100ad9190610286565b60405180910390f35b6100be610158565b005b6100c8610174565b6040516100d59190610286565b60405180910390f35b6100e661018a565b6040516100f39190610286565b60405180910390f35b6101046101a0565b6040516101119190610286565b60405180910390f35b6101226101b6565b005b61012c6101d3565b005b6101366101f0565b005b61014061025a565b005b60008060039054906101000a900460ff16905090565b60016000806101000a81548160ff021916908315150217905550565b60008060019054906101000a900460ff16905090565b60008060009054906101000a900460ff16905090565b60008060029054906101000a900460ff16905090565b6001600060036101000a81548160ff021916908315150217905550565b6001600060026101000a81548160ff021916908315150217905550565b60008060006101000a81548160ff02191690831515021790555060008060016101000a81548160ff02191690831515021790555060008060026101000a81548160ff02191690831515021790555060008060036101000a81548160ff021916908315150217905550565b6001600060016101000a81548160ff021916908315150217905550565b610280816102a1565b82525050565b600060208201905061029b6000830184610277565b92915050565b6000811515905091905056fea365627a7a723158207fb993cc9174b44f24524c302bbdf9884698726b960d1c81fa025379eb1b084b6c6578706572696d656e74616cf564736f6c63430005100040",
  "source": "//SPDX-License-Identifier: MIT\npragma solidity >=0.4.21 <=0.8;\npragma experimental ABIEncoderV2;\n\ncontract tracking{\n    bool mColor=false;\n    bool tColor=false;\n    bool dColor=false;\n    bool rColor=false;\n\n    function setmColor() public{\n        mColor=true;\n    }\n    function settColor() public{\n        tColor=true;\n    }\n    function setdColor() public{\n        dColor=true;\n    }\n    function setrColor() public{\n        rColor=true;\n    }\n    function reset() public{\n        mColor=false;\n        tColor=false;\n        dColor=false;\n        rColor=false;\n    }\n    function getmColor() public view returns (bool exists){\n        return mColor;\n    }\n    function gettColor() public view returns (bool exists){\n        return tColor;\n    }\n    function getdColor() public view returns (bool exists){\n        return dColor;\n    }\n    function getrColor() public view returns (bool exists){\n        return rColor;\n    }\n}",
  "sourcePath": "D:\\Hamza\\Document\\final year\\Final year project\\contracts\\tracking.sol",
  "compiler": {
    "name": "solc",
    "version": "0.5.16+commit.9c3226ce.Emscripten.clang"
  },
  "schemaVersion": "3.4.11",
  "updatedAt": "2023-02-01T18:03:32.431Z",
  "networkType": "ethereum",
  "devdoc": {
    "methods": {}
  },
  "userdoc": {
    "methods": {}
  }
}