{
  "contractName": "Transporter",
  "abi": [
    {
      "constant": true,
      "inputs": [
        {
          "internalType": "address",
          "name": "",
          "type": "address"
        }
      ],
      "name": "GroupOfTransporters",
      "outputs": [
        {
          "internalType": "string",
          "name": "Name",
          "type": "string"
        },
        {
          "internalType": "string",
          "name": "Id",
          "type": "string"
        },
        {
          "internalType": "string",
          "name": "Email",
          "type": "string"
        },
        {
          "internalType": "bool",
          "name": "isValue",
          "type": "bool"
        }
      ],
      "payable": false,
      "stateMutability": "view",
      "type": "function"
    },
    {
      "constant": false,
      "inputs": [
        {
          "internalType": "string",
          "name": "_Name",
          "type": "string"
        },
        {
          "internalType": "string",
          "name": "_Id",
          "type": "string"
        },
        {
          "internalType": "string",
          "name": "_Email",
          "type": "string"
        }
      ],
      "name": "setTranDetails",
      "outputs": [],
      "payable": false,
      "stateMutability": "nonpayable",
      "type": "function"
    },
    {
      "constant": true,
      "inputs": [
        {
          "internalType": "address",
          "name": "user",
          "type": "address"
        }
      ],
      "name": "getTranDetails",
      "outputs": [
        {
          "components": [
            {
              "internalType": "string",
              "name": "Name",
              "type": "string"
            },
            {
              "internalType": "string",
              "name": "Id",
              "type": "string"
            },
            {
              "internalType": "string",
              "name": "Email",
              "type": "string"
            },
            {
              "internalType": "bool",
              "name": "isValue",
              "type": "bool"
            }
          ],
          "internalType": "struct Transporter.transporterDetails",
          "name": "",
          "type": "tuple"
        }
      ],
      "payable": false,
      "stateMutability": "view",
      "type": "function"
    },
    {
      "constant": true,
      "inputs": [
        {
          "internalType": "address",
          "name": "user",
          "type": "address"
        }
      ],
      "name": "Exists",
      "outputs": [
        {
          "internalType": "bool",
          "name": "exists",
          "type": "bool"
        }
      ],
      "payable": false,
      "stateMutability": "view",
      "type": "function"
    },
    {
      "constant": true,
      "inputs": [],
      "name": "getTranAdd",
      "outputs": [
        {
          "internalType": "address[]",
          "name": "",
          "type": "address[]"
        }
      ],
      "payable": false,
      "stateMutability": "view",
      "type": "function"
    },
    {
      "constant": true,
      "inputs": [],
      "name": "getTranNames",
      "outputs": [
        {
          "internalType": "string[]",
          "name": "",
          "type": "string[]"
        }
      ],
      "payable": false,
      "stateMutability": "view",
      "type": "function"
    },
    {
      "constant": false,
      "inputs": [
        {
          "internalType": "string",
          "name": "_quantity",
          "type": "string"
        }
      ],
      "name": "getPackage",
      "outputs": [],
      "payable": false,
      "stateMutability": "nonpayable",
      "type": "function"
    },
    {
      "constant": true,
      "inputs": [],
      "name": "getQuantity",
      "outputs": [
        {
          "internalType": "string",
          "name": "",
          "type": "string"
        }
      ],
      "payable": false,
      "stateMutability": "view",
      "type": "function"
    }
  ],
  "bytecode": "0x608060405234801561001057600080fd5b50611228806100206000396000f3fe608060405234801561001057600080fd5b50600436106100885760003560e01c8063a2c0d7411161005b578063a2c0d74114610118578063a692136b14610148578063cda981d514610166578063dd09185f1461019657610088565b80630115949c1461008d57806303633118146100ab57806387c60483146100de578063a187b9ce146100fa575b600080fd5b6100956101b2565b6040516100a29190610f9c565b60405180910390f35b6100c560048036036100c09190810190610bf4565b610254565b6040516100d59493929190610fbe565b60405180910390f35b6100f860048036036100f39190810190610c1d565b610459565b005b610102610473565b60405161010f9190610f3d565b60405180910390f35b610132600480360361012d9190810190610bf4565b610501565b60405161013f9190611018565b60405180910390f35b61015061075b565b60405161015d9190610f5f565b60405180910390f35b610180600480360361017b9190810190610bf4565b610844565b60405161018d9190610f81565b60405180910390f35b6101b060048036036101ab9190810190610c5e565b6108b5565b005b606060008054600181600116156101000203166002900480601f01602080910402602001604051908101604052809291908181526020018280546001816001161561010002031660029004801561024a5780601f1061021f5761010080835404028352916020019161024a565b820191906000526020600020905b81548152906001019060200180831161022d57829003601f168201915b5050505050905090565b6001602052806000526040600020600091509050806000018054600181600116156101000203166002900480601f0160208091040260200160405190810160405280929190818152602001828054600181600116156101000203166002900480156103005780601f106102d557610100808354040283529160200191610300565b820191906000526020600020905b8154815290600101906020018083116102e357829003601f168201915b505050505090806001018054600181600116156101000203166002900480601f01602080910402602001604051908101604052809291908181526020018280546001816001161561010002031660029004801561039e5780601f106103735761010080835404028352916020019161039e565b820191906000526020600020905b81548152906001019060200180831161038157829003601f168201915b505050505090806002018054600181600116156101000203166002900480601f01602080910402602001604051908101604052809291908181526020018280546001816001161561010002031660029004801561043c5780601f106104115761010080835404028352916020019161043c565b820191906000526020600020905b81548152906001019060200180831161041f57829003601f168201915b5050505050908060030160009054906101000a900460ff16905084565b806000908051906020019061046f929190610a3c565b5050565b606060028054806020026020016040519081016040528092919081815260200182805480156104f757602002820191906000526020600020905b8160009054906101000a900473ffffffffffffffffffffffffffffffffffffffff1673ffffffffffffffffffffffffffffffffffffffff16815260200190600101908083116104ad575b5050505050905090565b610509610abc565b600160008373ffffffffffffffffffffffffffffffffffffffff1673ffffffffffffffffffffffffffffffffffffffff168152602001908152602001600020604051806080016040529081600082018054600181600116156101000203166002900480601f0160208091040260200160405190810160405280929190818152602001828054600181600116156101000203166002900480156105ec5780601f106105c1576101008083540402835291602001916105ec565b820191906000526020600020905b8154815290600101906020018083116105cf57829003601f168201915b50505050508152602001600182018054600181600116156101000203166002900480601f01602080910402602001604051908101604052809291908181526020018280546001816001161561010002031660029004801561068e5780601f106106635761010080835404028352916020019161068e565b820191906000526020600020905b81548152906001019060200180831161067157829003601f168201915b50505050508152602001600282018054600181600116156101000203166002900480601f0160208091040260200160405190810160405280929190818152602001828054600181600116156101000203166002900480156107305780601f1061070557610100808354040283529160200191610730565b820191906000526020600020905b81548152906001019060200180831161071357829003601f168201915b505050505081526020016003820160009054906101000a900460ff1615151515815250509050919050565b60606003805480602002602001604051908101604052809291908181526020016000905b8282101561083b578382906000526020600020018054600181600116156101000203166002900480601f0160208091040260200160405190810160405280929190818152602001828054600181600116156101000203166002900480156108275780601f106107fc57610100808354040283529160200191610827565b820191906000526020600020905b81548152906001019060200180831161080a57829003601f168201915b50505050508152602001906001019061077f565b50505050905090565b600060011515600160008473ffffffffffffffffffffffffffffffffffffffff1673ffffffffffffffffffffffffffffffffffffffff16815260200190815260200160002060030160009054906101000a900460ff16151514156108ab57600190506108b0565b600090505b919050565b604051806080016040528084815260200183815260200182815260200160011515815250600160003373ffffffffffffffffffffffffffffffffffffffff1673ffffffffffffffffffffffffffffffffffffffff1681526020019081526020016000206000820151816000019080519060200190610934929190610ae6565b506020820151816001019080519060200190610951929190610ae6565b50604082015181600201908051906020019061096e929190610ae6565b5060608201518160030160006101000a81548160ff02191690831515021790555090505060023390806001815401808255809150509060018203906000526020600020016000909192909190916101000a81548173ffffffffffffffffffffffffffffffffffffffff021916908373ffffffffffffffffffffffffffffffffffffffff160217905550506003839080600181540180825580915050906001820390600052602060002001600090919290919091509080519060200190610a35929190610a3c565b5050505050565b828054600181600116156101000203166002900490600052602060002090601f016020900481019282601f10610a7d57805160ff1916838001178555610aab565b82800160010185558215610aab579182015b82811115610aaa578251825591602001919060010190610a8f565b5b509050610ab89190610b66565b5090565b60405180608001604052806060815260200160608152602001606081526020016000151581525090565b828054600181600116156101000203166002900490600052602060002090601f016020900481019282601f10610b2757805160ff1916838001178555610b55565b82800160010185558215610b55579182015b82811115610b54578251825591602001919060010190610b39565b5b509050610b629190610b66565b5090565b610b8891905b80821115610b84576000816000905550600101610b6c565b5090565b90565b600081359050610b9a816111ce565b92915050565b600082601f830112610bb157600080fd5b8135610bc4610bbf82611067565b61103a565b91508082526020830160208301858383011115610be057600080fd5b610beb83828461117b565b50505092915050565b600060208284031215610c0657600080fd5b6000610c1484828501610b8b565b91505092915050565b600060208284031215610c2f57600080fd5b600082013567ffffffffffffffff811115610c4957600080fd5b610c5584828501610ba0565b91505092915050565b600080600060608486031215610c7357600080fd5b600084013567ffffffffffffffff811115610c8d57600080fd5b610c9986828701610ba0565b935050602084013567ffffffffffffffff811115610cb657600080fd5b610cc286828701610ba0565b925050604084013567ffffffffffffffff811115610cdf57600080fd5b610ceb86828701610ba0565b9150509250925092565b6000610d018383610d21565b60208301905092915050565b6000610d198383610e5a565b905092915050565b610d2a8161113d565b82525050565b6000610d3b826110b3565b610d4581856110f9565b9350610d5083611093565b8060005b83811015610d81578151610d688882610cf5565b9750610d73836110df565b925050600181019050610d54565b5085935050505092915050565b6000610d99826110be565b610da3818561110a565b935083602082028501610db5856110a3565b8060005b85811015610df15784840389528151610dd28582610d0d565b9450610ddd836110ec565b925060208a01995050600181019050610db9565b50829750879550505050505092915050565b610e0c8161114f565b82525050565b610e1b8161114f565b82525050565b6000610e2c826110d4565b610e36818561112c565b9350610e4681856020860161118a565b610e4f816111bd565b840191505092915050565b6000610e65826110c9565b610e6f818561111b565b9350610e7f81856020860161118a565b610e88816111bd565b840191505092915050565b6000610e9e826110c9565b610ea8818561112c565b9350610eb881856020860161118a565b610ec1816111bd565b840191505092915050565b60006080830160008301518482036000860152610ee98282610e5a565b91505060208301518482036020860152610f038282610e5a565b91505060408301518482036040860152610f1d8282610e5a565b9150506060830151610f326060860182610e03565b508091505092915050565b60006020820190508181036000830152610f578184610d30565b905092915050565b60006020820190508181036000830152610f798184610d8e565b905092915050565b6000602082019050610f966000830184610e12565b92915050565b60006020820190508181036000830152610fb68184610e21565b905092915050565b60006080820190508181036000830152610fd88187610e93565b90508181036020830152610fec8186610e93565b905081810360408301526110008185610e93565b905061100f6060830184610e12565b95945050505050565b600060208201905081810360008301526110328184610ecc565b905092915050565b6000604051905081810181811067ffffffffffffffff8211171561105d57600080fd5b8060405250919050565b600067ffffffffffffffff82111561107e57600080fd5b601f19601f8301169050602081019050919050565b6000819050602082019050919050565b6000819050602082019050919050565b600081519050919050565b600081519050919050565b600081519050919050565b600081519050919050565b6000602082019050919050565b6000602082019050919050565b600082825260208201905092915050565b600082825260208201905092915050565b600082825260208201905092915050565b600082825260208201905092915050565b60006111488261115b565b9050919050565b60008115159050919050565b600073ffffffffffffffffffffffffffffffffffffffff82169050919050565b82818337600083830152505050565b60005b838110156111a857808201518184015260208101905061118d565b838111156111b7576000848401525b50505050565b6000601f19601f8301169050919050565b6111d78161113d565b81146111e257600080fd5b5056fea365627a7a7231582020881a9add7aad69f43719361568e233cb3ea0316420555c61b71cd0341ecd7f6c6578706572696d656e74616cf564736f6c63430005100040",
  "source": "//SPDX-License-Identifier: MIT\npragma solidity >=0.4.21 <=0.8;\npragma experimental ABIEncoderV2;\n\ncontract Transporter {\n    struct transporterDetails{\n        string Name;\n        string Id;\n        string Email;\n        bool isValue;\n    }\n\n    string quantity;\n    \n    mapping (address => transporterDetails) public GroupOfTransporters;\n    address[] TranAdd;\n    string[] TranNames;\n\n    \n\n    function setTranDetails(string memory _Name, string memory _Id, string memory _Email) public {\n        GroupOfTransporters[msg.sender] = transporterDetails({\n            Name: _Name,\n            Id: _Id,\n            Email: _Email,\n            isValue: true\n        });\n\n        TranAdd.push(msg.sender);\n        TranNames.push(_Name);\n    }\n\n    function getTranDetails(address user) public view returns(transporterDetails memory){\n        return GroupOfTransporters[user];\n    }\n\n    function Exists(address user) public view returns(bool exists) {\n        if(GroupOfTransporters[user].isValue == true) return true;\n        return false;\n    }\n\n    function getTranAdd() public view returns (address[] memory){\n        return TranAdd;\n    }\n\n    function getTranNames() public view returns (string[] memory){\n        return TranNames;\n    }\n\n    function getPackage(string memory _quantity) public {\n        quantity = _quantity;\n    }\n\n    function getQuantity() public view returns (string memory){\n        return quantity;\n    }\n}",
  "sourcePath": "D:\\Hamza\\Document\\final year\\Final year project\\contracts\\Transporter.sol",
  "compiler": {
    "name": "solc",
    "version": "0.5.16+commit.9c3226ce.Emscripten.clang"
  },
  "schemaVersion": "3.4.11",
  "updatedAt": "2023-02-01T18:03:32.386Z",
  "networkType": "ethereum",
  "devdoc": {
    "methods": {}
  },
  "userdoc": {
    "methods": {}
  }
}